:100000000C9434000C944B000C9449000C9449005F
:100010000C9449000C9449000C9449000C9449003C
:100020000C9449000C9449000C9449000C9449002C
:100030000C9449000C9449000C9449000C9449001C
:100040000C9449000C9449000C9449000C9449000C
:100050000C9449000C9449000C9449000C944900FC
:100060000C9449000C94490011241FBECFEFD8E036
:10007000DEBFCDBF11E0A0E0B1E0E4E4F1E002C0FA
:1000800005900D92A230B107D9F70E946D000C9433
:10009000A0000C9400001F921FB61F9211242F93F2
:1000A0008F939F938091000190910101803A9F402E
:1000B0007CF488E19CEF909301018093000181E042
:1000C0008CBB9F918F912F911F901FBE1F901895F1
:1000D0001092010110920001F2CF8EE084B985B137
:1000E000817F85B952985A9A1092690081E08DBB40
:1000F00078948091000190910101803A9F40F4F43E
:10010000809100019091010197FF13C085B18E602D
:1001100085B98091000190910101019690930101B0
:10012000809300018FE99FE00197F1F700C0000084
:10013000E0CF85B1857F85B92A9AEBCF2A98D9CFB0
:04014000F894FFCF61
:02014400A00F0A
:00000001FF
