:100000000C9434000C944B000C9449000C9449005F
:100010000C9449000C9449000C9449000C9449003C
:100020000C9449000C9449000C9449000C9449002C
:100030000C9449000C9449000C9449000C9449001C
:100040000C9449000C9449000C9449000C9449000C
:100050000C9449000C9449000C9449000C944900FC
:100060000C9449000C94490011241FBECFEFD8E036
:10007000DEBFCDBF11E0A0E0B1E0ECE4F1E002C0F2
:1000800005900D92A230B107D9F70E946D000C9433
:10009000A4000C9400001F921FB61F9211242F93EE
:1000A0008F939F938091000190910101803A9F402E
:1000B0007CF488E19CEF909301018093000181E042
:1000C0008CBB9F918F912F911F901FBE1F901895F1
:1000D0001092010110920001F2CF8EE084B985B137
:1000E000817F85B952985A9A82E08093690081E0B5
:1000F0008DBB78942FB7F894809100019091010105
:100100002FBF803A2FE09207ECF497FF16C085B11D
:100110008E6085B92FB7F89480910001909101010C
:10012000019690930101809300012FBF8FE99FE01A
:100130000197F1F700C00000DDCF85B1857F85B95B
:0C0140002A9AE8CF2A98D6CFF894FFCF77
:02014C00A00F02
:00000001FF
